{
  "contractName": "ProductRegistry",
  "abi": [
    {
      "constant": true,
      "inputs": [
        {
          "name": "",
          "type": "uint256"
        }
      ],
      "name": "products",
      "outputs": [
        {
          "name": "title",
          "type": "string"
        },
        {
          "name": "description",
          "type": "string"
        },
        {
          "name": "submitterAvatar",
          "type": "string"
        },
        {
          "name": "productImage",
          "type": "string"
        },
        {
          "name": "votes",
          "type": "uint256"
        }
      ],
      "payable": false,
      "stateMutability": "view",
      "type": "function"
    },
    {
      "constant": false,
      "inputs": [
        {
          "name": "title",
          "type": "string"
        },
        {
          "name": "description",
          "type": "string"
        },
        {
          "name": "submitterAvatar",
          "type": "string"
        },
        {
          "name": "productImage",
          "type": "string"
        }
      ],
      "name": "addProduct",
      "outputs": [],
      "payable": false,
      "stateMutability": "nonpayable",
      "type": "function"
    },
    {
      "constant": false,
      "inputs": [
        {
          "name": "arrayIndex",
          "type": "uint256"
        }
      ],
      "name": "voteForProduct",
      "outputs": [],
      "payable": false,
      "stateMutability": "nonpayable",
      "type": "function"
    },
    {
      "constant": true,
      "inputs": [],
      "name": "productCount",
      "outputs": [
        {
          "name": "",
          "type": "uint256"
        }
      ],
      "payable": false,
      "stateMutability": "view",
      "type": "function"
    }
  ],
  "bytecode": "0x608060405234801561001057600080fd5b50610891806100206000396000f300608060405260043610610062576000357c0100000000000000000000000000000000000000000000000000000000900463ffffffff16806308c7d685146100675780637acc0b2014610094578063e0f6ef8714610285578063fde74e81146102b0575b600080fd5b34801561007357600080fd5b5061009260048036038101908080359060200190929190505050610333565b005b3480156100a057600080fd5b506100bf60048036038101908080359060200190929190505050610366565b604051808060200180602001806020018060200186815260200185810385528a818151815260200191508051906020019080838360005b838110156101115780820151818401526020810190506100f6565b50505050905090810190601f16801561013e5780820380516001836020036101000a031916815260200191505b50858103845289818151815260200191508051906020019080838360005b8381101561017757808201518184015260208101905061015c565b50505050905090810190601f1680156101a45780820380516001836020036101000a031916815260200191505b50858103835288818151815260200191508051906020019080838360005b838110156101dd5780820151818401526020810190506101c2565b50505050905090810190601f16801561020a5780820380516001836020036101000a031916815260200191505b50858103825287818151815260200191508051906020019080838360005b83811015610243578082015181840152602081019050610228565b50505050905090810190601f1680156102705780820380516001836020036101000a031916815260200191505b50995050505050505050505060405180910390f35b34801561029157600080fd5b5061029a61060b565b6040518082815260200191505060405180910390f35b3480156102bc57600080fd5b50610331600480360381019080803590602001908201803590602001919091929391929390803590602001908201803590602001919091929391929390803590602001908201803590602001919091929391929390803590602001908201803590602001919091929391929390505050610617565b005b60008181548110151561034257fe5b90600052602060002090600502016004016000815480929190600101919050555050565b60008181548110151561037557fe5b9060005260206000209060050201600091509050806000018054600181600116156101000203166002900480601f0160208091040260200160405190810160405280929190818152602001828054600181600116156101000203166002900480156104215780601f106103f657610100808354040283529160200191610421565b820191906000526020600020905b81548152906001019060200180831161040457829003601f168201915b505050505090806001018054600181600116156101000203166002900480601f0160208091040260200160405190810160405280929190818152602001828054600181600116156101000203166002900480156104bf5780601f10610494576101008083540402835291602001916104bf565b820191906000526020600020905b8154815290600101906020018083116104a257829003601f168201915b505050505090806002018054600181600116156101000203166002900480601f01602080910402602001604051908101604052809291908181526020018280546001816001161561010002031660029004801561055d5780601f106105325761010080835404028352916020019161055d565b820191906000526020600020905b81548152906001019060200180831161054057829003601f168201915b505050505090806003018054600181600116156101000203166002900480601f0160208091040260200160405190810160405280929190818152602001828054600181600116156101000203166002900480156105fb5780601f106105d0576101008083540402835291602001916105fb565b820191906000526020600020905b8154815290600101906020018083116105de57829003601f168201915b5050505050908060040154905085565b60008080549050905090565b600060a0604051908101604052808a8a8080601f016020809104026020016040519081016040528093929190818152602001838380828437820191505050505050815260200188888080601f016020809104026020016040519081016040528093929190818152602001838380828437820191505050505050815260200186868080601f016020809104026020016040519081016040528093929190818152602001838380828437820191505050505050815260200184848080601f016020809104026020016040519081016040528093929190818152602001838380828437820191505050505050815260200160008152509080600181540180825580915050906001820390600052602060002090600502016000909192909190915060008201518160000190805190602001906107519291906107c0565b50602082015181600101908051906020019061076e9291906107c0565b50604082015181600201908051906020019061078b9291906107c0565b5060608201518160030190805190602001906107a89291906107c0565b50608082015181600401555050505050505050505050565b828054600181600116156101000203166002900490600052602060002090601f016020900481019282601f1061080157805160ff191683800117855561082f565b8280016001018555821561082f579182015b8281111561082e578251825591602001919060010190610813565b5b50905061083c9190610840565b5090565b61086291905b8082111561085e576000816000905550600101610846565b5090565b905600a165627a7a723058202ca7caa662260132bdc728a5d6364b6d4748698a95e5592af8a14f75d89060db0029",
  "source": "pragma solidity 0.4.24;\n\n\ncontract ProductRegistry {\n    struct Product {\n        string title;\n        string description;\n        string submitterAvatar;\n        string productImage;\n        uint256 votes;\n    }\n\n    Product[] public products;\n\n    function addProduct(string title, string description, string submitterAvatar, string productImage) external {\n        products.push(\n            Product(title, description, submitterAvatar, productImage, 0)\n        );\n    }\n\n    function voteForProduct(uint256 arrayIndex) external {\n        products[arrayIndex].votes++;\n    }\n\n    function productCount() view returns(uint) {\n        return products.length;\n    }\n}",
  "sourcePath": "/home/ajl/Desktop/blg/product-registry-02/smart-contracts/contracts/ProductRegistry.sol",
  "compiler": {
    "name": "solc",
    "version": "0.4.24+commit.e67f0147.Emscripten.clang"
  },
  "schemaVersion": "2.0.1",
  "updatedAt": "2019-01-24T16:29:41.007Z"
}